:020000040000FA
:060000000A128A11EE2F26
:100EB20083160313880183120313880108003F3449
:100EC20006345B344F3466346D347D3407347F34FA
:100ED2006F3477347C3439345E34793471347E083B
:100EE2008A007F0882000A128A1170270A128A1168
:100EF2008000840A04087D0603190034FF0A0319DE
:100F0200FE0A742F922FC730F200872FF20B862F22
:100F12008A2F8B2F0130F0020030031CF103F10203
:100F2200922F70087104031D972F982F842F992FE9
:100F32000800F11B9D2F9E2FB42F7108803AFF00ED
:100F420080307F02031DA72F103070020318AA2FD2
:100F5200AB2FB42F7008203E840083130008831245
:100F620003138800B82F831203138801B82F0800D7
:100F7200F301F4010A128A1159270A128A11C12FA8
:100F82007408F1007308F0000A128A119A270A12F3
:100F92008A11E830F0000330F1000A128A11832727
:100FA2000A128A110130F3070318F40A0030F40719
:100FB2007408803AFF0080307F02031DE22F143054
:100FC2007302031CE52FE62FC12FF301F401C12F99
:100FD200C12FC12F0A128A11002883133030FD005D
:100FE2000730FE006030FF00203084000A128A11B0
:0E0FF20074270A128A1183010A128A11B92F7C
:04400E00D4E0FFFFFC
:00000001FF
